:020000040800F2
:1000000000000320DD020008E3020008E702000808
:10001000590300085D030008A50300080000000064
:10002000000000000000000000000000ED030008D8
:10003000F103000800000000F50300080D2100088E
:10004000090400080904000809040008090400085C
:10005000090400080904000809040008090400084C
:10006000090400080904000809040008090400083C
:10007000090400080904000809040008090400082C
:10008000090400080904000809040008090400081C
:10009000090400080904000809040008090400080C
:1000A00009040008090400080904000809040008FC
:1000B00009040008090400080904000809040008EC
:1000C00009040008090400080904000809040008DC
:1000D00009040008090400080904000809040008CC
:1000E00009040008090400080904000809040008BC
:1000F00009040008090400080904000809040008AC
:10010000090400080904000809040008090400089B
:10011000090400080904000809040008090400088B
:10012000090400080904000809040008090400087B
:10013000090400080904000809040008090400086B
:10014000090400080904000809040008090400085B
:10015000090400080904000809040008090400084B
:10016000090400080904000809040008090400083B
:100170000904000809040008090400080000000040
:10018000090400080904000809040008090400081B
:10019000090400080904000809040008090400080B
:1001A00009040008090400080904000800B583B028
:1001B00001F006FE384B394A1360394A1360394959
:1001C00006E052F8041B43F8041B9842F9D8614634
:1001D000354B994205D20A684B6801F10C0C8868CE
:1001E000F3E72E4B1A68314B9A4200D0FEE72C4BB6
:1001F0001A682F4B9A42F9D1274B2E4A13602E4A88
:1002000013602E4A00E002462D4B9A4209D2104656
:1002100050F8083B51689942F5D9002243F8042B65
:10022000F9E7244B1B6813B9234B1B6803B1FEE7A6
:1002300001F0C0FF694601A801F0CEFB214C224B22
:10024000E41AA410002504E01F4B53F8253098470A
:100250000135AC42F8DC1D4C1D4BE41AA4100025FE
:1002600004E01B4B53F8253098470135AC42F8DCCD
:100270000099019802F078F80546164C164BE41ADE
:10028000A41004E0013C144B53F824309847002C90
:10029000F8DC284601F03CFBBABADECA00000020B8
:1002A000640000200C04000824040008785634126E
:1002B0003254769868000020A80300202404000827
:1002C000340400083404000834040008340400082E
:1002D00034040008340400083404000808B5FFF7AB
:1002E00065FF00BEFEE71EF0040F0CBFEFF30880B1
:1002F000EFF309807146414A10472DE9F04182B081
:1003000004460D46124B5F6BD3F838809E6A1B6B18
:1003100013F0020F03D00E4BDB6A002B0BDB0D48F2
:1003200001F0EEFC009543463A463146204601F086
:1003300053FD00BEFEE74BF6AB6101F0C7FD0028A0
:10034000EDD0034B4FF00042DA6202B0BDE8F0811D
:1003500000ED00E0543A000800BEFEE71EF0040F76
:100360000CBFEFF30880EFF309807146244A104771
:100370002DE9F04182B004460D46084B5F6BD3F87F
:1003800038809E6A064801F0BBFC009543463A4619
:100390003146204601F020FD00BEFEE700ED00E002
:1003A000643A00081EF0040F0CBFEFF30880EFF36F
:1003B00009807146134A10472DE9F04182B0044686
:1003C0000D46084B5F6BD3F838809E6A064801F0F3
:1003D00097FC009543463A463146204601F0FCFC26
:1003E00000BEFEE700ED00E0703A000800BEFEE748
:1003F00000BEFEE700BEFEE770470000FB020008FB
:0C04000071030008B903000800BEFEE70D
:10040C002C3C000800000020680000202C3C000858
:10041C00000000100000001068000020AC03002059
:08042C000000001000000010A8
:1004400010B50446074B1868074BA3FB0030800922
:1004500000F098F8002221464FF0FF3000F04CF8F1
:10046000002010BD04000020D34D621008B50B4BD6
:100470001A6842F400721A601A6842F480621A60C4
:100480001A6842F480721A60032000F017F80F20F7
:10049000FFF7D6FF01F0BEFF002008BD003C024080
:1004A000024A136801331360704700BF6C000020DC
:1004B000014B1868704700BF6C00002010B504465F
:1004C000C31E042B0FD80A4AD36823F4E0631B042D
:1004D0001B0C240204F4E064234343F0BF6343F4A1
:1004E0000033D36010BDA421024801F0FFFBEAE70E
:1004F00000ED00E09836000870B505460C4616463B
:100500000F2A25D80F2C28D81B4BDB68C3F30223F6
:10051000C3F10702042A28BF0422191D062921D984
:10052000033B4FF0FF3101FA02F224EA02049C403F
:10053000994026EA010644EA0602002D14DB120166
:10054000D2B205F1604505F5614585F8002370BD1F
:10055000BC210A4801F0CAFBD4E7BD21074801F0DD
:10056000C5FBD1E70023DCE705F00F051201D2B28D
:10057000034B5A55EBE700BF00ED00E0983600084A
:1005800014ED00E00138B0F1807F0BD24FF0E02392
:100590005861054AF02182F8231000209861072253
:1005A0001A6170470120704700ED00E010B5044665
:1005B000042800D040B9042C0CD04FF0E02213697D
:1005C00023F00403136110BD40F2B311054801F09C
:1005D0008DFBF0E74FF0E022136943F00403136151
:1005E000F1E700BF983600082DE9F04782B00746D2
:1005F0000E46A84B98422BD003F58063984227D033
:1006000003F58063984223D003F5806398421FD09E
:1006100003F5806398421BD003F58063984217D09E
:1006200003F58063984213D003F5806398420FD09E
:1006300003F5806398420BD003F58063984207D09E
:1006400003F58063984203D0C521934801F04EFB27
:1006500033887BB17368012B16D9904A934213D02B
:100660001AD8A2F5801293420ED008D98C4A934230
:100670000AD01CE0C621884801F038FBEAE7032BCA
:1006800007D9113B012B12D8B368022B14D80024D0
:1006900059E0022B0BD3F7E7824A9342F4D002F5DC
:1006A00080329342F0D0A2F580129342ECD0C72161
:1006B000794801F01BFBE7E7C821774801F016FBFA
:1006C000E5E7D921744801F011FB51E0EC217248B3
:1006D00001F00CFB78E0092300E000238B4003438A
:1006E0000232714941F82230704B1A686FEA0803F0
:1006F00022EA0801706810F4803F01D048EA020144
:100700006A4A1160526803EA0201706810F4003FFF
:1007100001D048EA0201654A5160926803EA020189
:10072000706810F4801F01D048EA02015F4A9160AE
:10073000D2681340716811F4001F01D048EA020327
:100740005A4AD36001340F2C00F2C0800125A54025
:10075000336803EA050835EA0303F3D17368022B13
:1007600001D0122B14D1336913B1013B0E2BA8D841
:10077000E208083257F8220004F0070189000F232D
:100780008B4020EA030033698B40034347F8223053
:100790003A684FEA440A032303FA0AF36FEA0309AB
:1007A00022EA0302736803F0030303FA0AF3134314
:1007B0003B6073685A1E012A03D9112B01D0122BFA
:1007C00013D1F368032B81D8BA6809EA0202F368EF
:1007D00003FA0AF31343BB607A6822EA05027368DE
:1007E000C3F30013A34013437B60FB6809EA0309CA
:1007F000B36803FA0AF343EA0903FB60736813F072
:10080000805F9FD000230193294B5A6C42F48042B1
:100810005A645B6C03F480430193019BA208911C12
:10082000214B53F8210004F0030189000F238B4072
:1008300020EA0300174B9F423FF44FAF03F580635C
:100840009F4222D003F580639F4220D003F580634E
:100850009F422FD003F580639F422DD003F5806324
:100860009F422BD003F580639F4229D003F580631C
:100870009F4227D003F580639F4225D003F5806314
:100880009F423FF428AF0A2328E7012326E70223EB
:1008900024E700BF00000240CC3600080000211011
:1008A000000012100000311000380140003C0140EF
:1008B00000380240032311E704230FE705230DE767
:1008C00006230BE7072309E7082307E702B0BDE883
:1008D000F08700BF70B5054614460E4621B1012CC5
:1008E00008D86CB1AE6170BD40F2B111064801F09C
:1008F000FDF9F4E74FF4D971034801F0F7F9F0E797
:100900003604AE61EFE700BFCC36000830B583B0E7
:100910000446A54801F00EFA23680F2B4FD8236830
:1009200013F0010F1ED06368012B01D9052B4BD1A9
:100930009E4B9B6803F00C03042B0AD09B4B9B68D7
:1009400003F00C03082B44D1984B5B6813F4800F21
:100950003FD0964B1B6813F4003F03D06368002B15
:1009600000F03382236813F0020F00F09880E368F0
:10097000012B6DD823691F2B70D88C4B9B6813F00B
:100980000C0F76D0894B9B6803F00C03082B6BD0BF
:10099000E368002B00F0AE80854B01221A60FFF760
:1009A00087FD0546814B1B6813F0020F40F09480D1
:1009B000FFF77EFD401B0228F4D903203DE1F5211D
:1009C0007C4801F093F9AAE7FA217A4801F08EF900
:1009D000AEE7794801F0AEF9734801F0ABF922793E
:1009E000724B9A70754801F0A5F96368F3B1FFF78F
:1009F0005FFD0546FFF75CFD0146714801F09AF97D
:100A00006A4B1B6813F4003F0CD16E4801F092F959
:100A1000FFF74EFD401B6428F2D96B4801F08AF9BC
:100A200003200AE1694801F085F99BE7684801F075
:100A300081F9FFF73DFD05465C4B1B6813F4003F51
:100A400090D0FFF735FD401B6428F5D90320F4E072
:100A500040F23311574801F049F98BE74FF49A718E
:100A6000544801F043F988E7504B5B6813F4800F5A
:100A70008ED14E4B1B6813F0020F03D0E368012B9D
:100A800040F0A5814948036823F0F8032169F82262
:100A900092FAA2F2B2FA82F291400B430360236809
:100AA00013F0080F51D06369012B35D86369002B0F
:100AB00038D03F4B0122C3F8802EFFF7F9FC0546E2
:100AC0003A4B5B6F13F0020F3FD1FFF7F1FC401B75
:100AD0000228F5D90320B0E03448036823F0F80376
:100AE0002169F82292FAA2F2B2FA82F291400B4303
:100AF0000360D4E72E4B00221A60FFF7D9FC0546AD
:100B00002A4B1B6813F0020FC9D0FFF7D1FC401B22
:100B10000228F5D9032090E04FF4BA71254801F07E
:100B2000E5F8C3E7224B0022C3F8802EFFF7C0FC94
:100B300005461E4B5B6F13F0020F06D0FFF7B8FCA3
:100B4000401B0228F5D9032077E0236813F0040F37
:100B50006AD0A368012B01D9052B1FD10023019373
:100B6000124B1A6C42F080521A641B6C03F08053D3
:100B70000193019B174A136843F480731360FFF7D6
:100B800097FC0546134B1B6813F4807F24D1FFF7B5
:100B90008FFC431B022BF5D903204EE04FF4CF719D
:100BA000044801F0A3F8D9E7FC36000800380240F9
:100BB0000000474210370008403700085837000847
:100BC0007037000888370008A0370008B8370008D9
:100BD000D037000800700040227A7E4B83F87020E6
:100BE000A36883B1FFF764FC05467A4B1B6F13F0D3
:100BF000020F19D1FFF75CFC401B41F28833984289
:100C0000F3D9032019E0FFF753FC0546714B1B6F26
:100C100013F0020F08D0FFF74BFC401B41F2883362
:100C20009842F3D9032008E06B4801F083F8A369E8
:100C3000022B04D8A36943B9002003B030BD4FF4A0
:100C4000EA71664801F052F8F4E7654801F072F87D
:100C5000604B9B6803F00C03082B00F0B1806148E7
:100C600001F068F8A369022B15D05F4801F062F823
:100C70005E4B00221A66FFF71BFC0446554B1B68AF
:100C800013F0007F00F09A80FFF712FC001B02288F
:100C9000F4D90320D1E7564801F04CF8E36913B1C9
:100CA000B3F5800F2CD1236A3F2B2FD8636A323BD8
:100CB000B3F5BF7F30D8A36A022B08D0082B31D8F8
:100CC0004FF4A87222FA03F313F0010F2AD0E36A5B
:100CD000043B0B2B2CD8454B00221A66FFF7E8FB90
:100CE0000546444801F026F83A4B1B6813F0007F94
:100CF00024D0FFF7DDFB401B0228F5D903209CE739
:100D00004FF4F071354800F0F1FFCCE740F2E1110B
:100D1000324800F0EBFFC9E74FF4F1712F4800F0C3
:100D2000E5FFC8E740F2E3112C4800F0DFFFCEE713
:100D30004FF4F271294800F0D9FFCCE72E4800F0BB
:100D4000F9FFE369226A1343616A47F6C07292FAB7
:100D5000A2F2B2FA82F291400B43A26A5208013A1F
:100D60004FF4403191FAA1F1B1FA81F18A40134375
:100D7000E16A4FF0706292FAA2F2B2FA82F201FADC
:100D800002F21343134A5360184B01221A661B48A0
:100D900000F0D0FFFFF78CFB0446194800F0CAFFB3
:100DA0000C4B1B6813F0007F06D1FFF781FB001B83
:100DB0000228F5D9032040E700203EE700203CE769
:100DC000104800F0B7FF012037E7012035E7012088
:100DD00033E700BF00380240E8370008103700084A
:100DE000FC37000810380008883800080000474227
:100DF00024380008383800084C38000860380008EB
:100E000074380008A0380008224B9B6803F00C03DC
:100E1000042B3AD0082B3AD11E4A536803F03F0303
:100E2000526812F4800F1FD01B48B0FBF3F0194B2F
:100E30005A6847F6C0731A4093FAA3F3B3FA83F3E0
:100E400022FA03F303FB00F0124B5B6803F4403318
:100E50004FF4403292FAA2F2B2FA82F2D340013356
:100E60005B00B0FBF3F070470C48B0FBF3F0094BAC
:100E70005A6847F6C0731A4093FAA3F3B3FA83F3A0
:100E800022FA03F303FB00F0DEE703487047034850
:100E9000704700BF0038024000127A000024F400BE
:100EA00070B504460D460368013B0E2B1FD80F2D6D
:100EB00023D88E4B1B6803F00F03AB4208D2EBB272
:100EC0008A4A1370136803F00F03AB4240F00781A6
:100ED000236813F0020F21D0A368C3B1C02B16D032
:100EE0004DD8A02B13D00ED9B02B10D04DE04FF41D
:100EF00011717F4800F0FAFED9E740F245217C48A5
:100F000000F0F4FED5E7802B01D0902B3DD1794A3B
:100F1000936823F0F003A1680B439360236813F0F8
:100F2000010F79D06368032B35D86368012B38D063
:100F30009A1E012A3CD96F4A126812F0020F00F083
:100F4000D0806C498A6822F0030213438B60FFF75C
:100F5000AFFA06466368012B31D0022B3ED0032B3B
:100F60004BD0644B9B6813F00C0F55D0FFF7A0FAE1
:100F7000801B41F288339842F3D90320A2E0E02B92
:100F8000C5D0F02BC3D0D02BC1D04FF41771584827
:100F900000F0ACFEBBE740F26321554800F0A6FE2E
:100FA000C3E7544A126812F4003FCAD1012089E015
:100FB000504A126812F0007FC3D1012082E04D4BED
:100FC0009B6803F00C03042B26D0FFF771FA831BF8
:100FD00041F288329342F2D9032073E0454B9B687B
:100FE00003F00C03082B17D0FFF762FA801B41F2C5
:100FF00088339842F2D9032064E03E4B9B6803F0AB
:101000000C030C2B08D0FFF753FA801B41F28833F6
:101010009842F2D9032055E0344B1B6803F00F03CC
:10102000AB4207D9EAB2314B1A701B6803F00F03C9
:10103000AB4258D1236813F0040F14D0E3685BB1BE
:10104000B3F5805F08D0B3F5A05F05D0B3F5C05FFE
:1010500002D0B3F5E05F36D1264A936823F4E0531B
:10106000E1680B439360236813F0080F15D02369E0
:101070005BB1B3F5805F08D0B3F5A05F05D0B3F5E1
:10108000C05F02D0B3F5E05F23D11A4A936823F41E
:101090006043216943EAC1039360FFF7B5FE154B36
:1010A0009B6803F0F003F02292FAA2F2B2FA82F205
:1010B000D340114AD35CD840104B18600F20FFF783
:1010C000BFF9002070BD40F2C121094800F00EFEBA
:1010D000C2E74FF43271064800F008FED5E7012060
:1010E000F0E70120EEE70120ECE700BF003C024002
:1010F0001037000800380240B4380008040000200F
:10110000014B1868704700BF0400002008B5FFF7C6
:10111000F7FF074B9B6803F4E0534FF4E05292FA59
:10112000A2F2B2FA82F2D340024AD35CD84008BDA0
:1011300000380240B438000808B5FFF7E1FF074B5C
:101140009B6803F460434FF4604292FAA2F2B2FA51
:1011500082F2D340024AD35CD84008BD0038024036
:10116000B43800082DE9F04104464268B24B9A4277
:1011700000F29A80E3681BB1B3F5005F40F09A80FB
:10118000236933B1B3F5806F03D0B3F5C06F40F07E
:10119000978063694FF6F372134200D123B940F28E
:1011A0005271A64800F0A2FD21680A6922F440525B
:1011B000E36813430B612168CA6822F4164222F0E7
:1011C0000C02A3682069034360690343E069034399
:1011D0001343CB6021684A6922F44072A369134328
:1011E0004B61E369B3F5004F70D02368944A934292
:1011F00000F02A8102F58062934200F02581FFF71A
:1012000085FF00EB800000EB800063689B00B0FB73
:10121000F3F58C4FA7FB05356D092E01FFF776FF1F
:1012200000EB800000EB800063689B00B0FBF3F5EF
:10123000FFF76CFF00EB800000EB800063689B0011
:10124000B0FBF3F0A7FB003040094FF0640808FB47
:1012500010531B013233A7FB03235B0903F0F00398
:10126000F518FFF753FF00EB800000EB8000636888
:101270009B00B0FBF3F6FFF749FF00EB800000EBAB
:10128000800063689B00B0FBF3F0A7FB00304009CF
:1012900008FB10631B013233A7FB0373C3F3431333
:1012A00022681D44956023E140F24F71634800F0CD
:1012B0001DFD5FE74FF4EA61604800F017FD5FE74E
:1012C00040F251715D4800F011FD62E723685C4A0D
:1012D00093425AD002F58062934256D0FFF716FF30
:1012E00000EB800000EB800863685B00B8FBF3F85C
:1012F000544EA6FB08384FEA58184FEA0818FFF773
:1013000005FF00EB800000EB800063685B00B0FB32
:10131000F3F5FFF7FBFE00EB800000EB8000636855
:101320005B00B0FBF3F3A6FB03235B09642707FB19
:101330001355ED003235A6FB05356D096D0005F43A
:10134000F8754544FFF7E2FE00EB800000EB8000FB
:1013500063685B00B0FBF3F8FFF7D8FE00EB80009A
:1013600000EB800063685B00B0FBF3F3A6FB032394
:101370005B0907FB1383DB003233A6FB0363C3F374
:10138000421322681D449560B2E0FFF7D5FE00EBE2
:10139000800000EB800063685B00B0FBF3F8294E2F
:1013A000A6FB08384FEA58184FEA0818FFF7C4FEA2
:1013B00000EB800000EB800063685B00B0FBF3F59E
:1013C000FFF7BAFE00EB800000EB800063685B0073
:1013D000B0FBF3F3A6FB03235B09642707FB13555C
:1013E000ED003235A6FB05356D096D0005F4F87585
:1013F0004544FFF7A1FE00EB800000EB800063682E
:101400005B00B0FBF3F8FFF797FE00EB800000EB0A
:10141000800063685B00B0FBF3F3A6FB03235B096A
:1014200007FB1383DB003233A6FB0363C3F34213D2
:1014300022681D4495605BE0A037A000C438000816
:10144000001001401F85EB51FFF776FE00EB800096
:1014500000EB800063689B00B0FBF3F5254FA7FB12
:1014600005356D092E01FFF767FE00EB800000EBEC
:10147000800063689B00B0FBF3F5FFF75DFE00EBB7
:10148000800000EB800063689B00B0FBF3F0A7FBDB
:10149000003040094FF0640808FB10531B01323341
:1014A000A7FB03235B0903F0F003F518FFF744FEE5
:1014B00000EB800000EB800063689B00B0FBF3F65C
:1014C000FFF73AFE00EB800000EB800063689B00B2
:1014D000B0FBF3F0A7FB0030400908FB10631B01D1
:1014E0003233A7FB0373C3F3431322681D44956093
:1014F000BDE8F0811F85EB512DE9F84305460F4605
:1015000016469946DDF820802B681C6837EA0404EB
:101510000CBF01240024B4421FD1B8F1FF3FF3D027
:10152000B8F1000F05D0FEF7C3FFA0EB090040455E
:10153000EAD92A68D36823F4D073D3602A68536940
:1015400023F001035361202385F8393085F83A30C0
:10155000002385F83830032000E00020BDE8F88340
:1015600070470000002800F0918010B504468369A0
:10157000002B53D00368464A93420FD0A2F54C4249
:1015800093420BD002F58062934207D002F54C42A1
:10159000934203D0FE213F4800F0A8FBA36943B16A
:1015A000B3F5807F05D0B3F5007F02D0B3F5407F5F
:1015B0002FD1A36813B1B3F5805F55D1E36913B19F
:1015C000B3F5004F56D194F83930002B58D024236E
:1015D00084F839302268D36823F40053D36020465E
:1015E000FFF7C0FD2268136923F49043136122685A
:1015F000536923F02A0353612268D36843F40053EC
:10160000D3600020E063202384F8393084F83A3036
:1016100010BDFF211F4800F069FBCAE703681C4AA0
:101620009342C6D0A2F54C429342C2D002F58062EA
:101630009342BED002F580629342BAD002F5806236
:101640009342B6D002F544429342B2D0A2F51C4276
:101650009342AED002F580629342AAD040F20311C9
:101660000C4800F043FBA4E740F20511094800F0E4
:101670003DFBA3E74FF48371064800F037FBA2E778
:1016800084F838302046FFF76BFFA0E70120704751
:1016900000100140C43800082DE9F04182B01E4618
:1016A00090F83930DBB2202B50D104460D469046DD
:1016B00000294FD0002A4FD090F83830012B4DD060
:1016C000012380F838300023C363212380F83930A8
:1016D000FEF7EEFE0746A4F82480A4F8268010E06A
:1016E00000963B46002280212046FFF705FF002898
:1016F00036D12B882268C3F3080353602369ABB942
:101700000235E28CA2B1013AE284A268B2F5805FB0
:10171000E6D000963B46002280212046FFF7ECFEF3
:1017200000BB15F8012B23685A60EAE70135E8E7AA
:1017300000963B4640212046FFF7DEFEA0B920235D
:1017400084F83930002384F8383000E0022002B0F9
:10175000BDE8F0810120FAE70120F8E70220F6E772
:101760000320F4E70320F2E70320F0E72DE9F0413E
:1017700082B01E4690F83A30DBB2202B57D1044697
:101780000D469046002956D0002A56D090F83830A1
:10179000012B54D0012380F838300023C363222367
:1017A00080F83A30FEF784FE0746A4F82C80A4F8AF
:1017B0002E801DE000963B46002220212046FFF7A8
:1017C0009BFE00283DD1236933B923685B68C3F3CE
:1017D000080325F8023B0BE023685B68DBB225F8C1
:1017E000013B05E023685B6803F07F0305F8013BDC
:1017F000E28DAAB1013AE285A268B2F5805FD9D044
:1018000000963B46002220212046FFF775FED0B906
:101810002369002BE6D123685B6805F8013BE7E705
:10182000202384F83A30002084F8380000E00220B9
:1018300002B0BDE8F0810120FAE70120F8E70220BC
:10184000F6E70320F4E70320F2E7000008B50348B9
:1018500000F070FA012000F05BF800BFF4380008D7
:1018600008B503460C4A12685AB10B4A1068033394
:1018700023F003030344094A934206D8064A13603F
:1018800008BD054A06491160EFE700F051FF0C233F
:1018900003604FF0FF30F3E77000002000FC0220EF
:1018A000AC03002030B51324002520462946ABBEEA
:1018B0000446204630BD38B5044600F039FF0546E1
:1018C000FFF7F0FF2860204638BDB0F1FF3F00D0A1
:1018D000704708B5FFF7EFFF08BD000010B50446DC
:1018E000094B186800F012FE132C09D8074B53F867
:1018F0003430B3F1FF3F05D0044800EBC40010BD05
:101900000020FCE70020FAE760000020FC00002037
:1019100000B530B9044D182420462946ABBE044614
:10192000FEE7024DF7E700BF260002002300020099
:101930002DE9F04184B0234F01970326039600233D
:101940000293012401AD20462946ABBE80461E4BC2
:10195000C3F800800197039604230293204629468A
:10196000ABBE8046194BC3F800800197039608234D
:10197000029320462946ABBE0446154B1C60B4F1C9
:10198000FF3F01D000230AE0104B1A68104B1A6089
:10199000F8E7104A4FF0FF3142F833100133132BB0
:1019A000F7DD0C4B084A12681A6000225A6007499A
:1019B00009689960DA600649096819615A6104B0DA
:1019C000BDE8F08108390008F4000020F80000208C
:1019D000F0000020FC0000202DE9F04383B0814698
:1019E00088462A4B00934F23019315276C463846AF
:1019F0002146ABBE0746AFBB244B002283F84F20E5
:101A0000009A3E463C463D4607E001321E46204BCA
:101A100043F8252001350124013292F90030FBB151
:101A200064B91C49C9560029F6DB092BF4D0082DEE
:101A300016DC222BE9D0272BE9D1E6E736B19E420E
:101A4000EAD1002313703E463C46E5E71149C956EA
:101A5000002901DB092BDFD1002313703446DBE7BB
:101A60003DB900E00025094B00221A70084A1360B6
:101A70000135074B002243F82520C9F80050C8F86B
:101A80000030FFF755FF03B0BDE8F083740000207D
:101A9000C4000020F83A000830B585B001900291EA
:101AA0000392062401AD20462946ABBE04462046DB
:101AB000FFF70BFF05B030BD70B50D461446FFF7BC
:101AC0000DFF68B10646224629460068FFF7E4FF8D
:101AD000B0F1FF3F03D0201A73680344736070BDF8
:101AE00000F026FE092303604FF0FF30F7E7F0B562
:101AF00083B00C461546FFF7F1FEC0B10646022D35
:101B00001CD8012D21D0022D29D0336800930194D7
:101B10000A256F4628463946ABBE05462846FFF7DC
:101B2000D4FE00282BDB7460204603B0F0BD00F02B
:101B3000FFFD092303604FF0FF30F6E700F0F8FDEA
:101B4000162303604FF0FF30EFE74368E418DCD55D
:101B500000F0EEFD162303604FF0FF30E5E7036869
:101B600000930C256F4628463946ABBE05462846ED
:101B7000FFF7ABFEB0F1FF3FD7D00444C5E74FF00D
:101B8000FF30D2E708B5FFF7B2FF08BD30B585B02A
:101B9000019002910392052401AD20462946ABBE77
:101BA00004462046FFF791FE05B030BD70B50D46E6
:101BB0001446FFF793FE70B1064622462946006898
:101BC000FFF7E4FF031E11DBE01A72680244726043
:101BD0009C4207D070BD00F0ABFD092303604FF0BD
:101BE000FF30F7E70020FFF766FEF3E74FF0FF3026
:101BF000F0E730B583B00190022401AD20462946BC
:101C0000ABBE04462046FFF760FE03B030BD0000C7
:101C100038B50446FFF762FE80B10546601E012814
:101C200004D80C4B9A681B699A420ED02868FFF7BB
:101C3000E0FF10B94FF0FF332B6038BD00F078FDA6
:101C4000092303604FF0FF30F7E74FF0FF332B60BD
:101C50000020F2E7FC00002070B50C46FFF73EFEC6
:101C6000A8B10646636843F4005363604FF4806391
:101C7000A3640C2528463146ABBE05462846FFF72F
:101C800024FEB0F1FF3F01D02061002070BD00F0C4
:101C90004FFD092303604FF0FF30F7E738B50546E5
:101CA0000C4658220021204600F0F4FC214628462C
:101CB000FFF7D2FF38BD38B5FFF710FE80B10546FB
:101CC000092420462946ABBE04462046012C06D0F6
:101CD00000F02EFD0446FFF7E5FD2060002038BD32
:101CE00000F026FD092303600020F8E708B50A4646
:101CF0000146024800F004F8FFF7A8FD0C3900087F
:101D00000FB400B583B004AB53F8042B01938021CA
:101D1000074800F0B1FC002804DC03B05DF804EBD8
:101D200004B070470146024800F045F8F5E700BFEF
:101D30009C01002010B5044600F00CFD0146204631
:101D400000F039F80121024800F035F810BD00BF5D
:101D5000D03900082DE9F04385B004460F464356BC
:101D60003BBB042528462146ABBE0546384605B098
:101D7000BDE8F08314F901CB03F110026A4402F8C4
:101D800010CC0133AB42F5D310336B44002203F87F
:101D9000102C4FF00408E94640464946ABBE804649
:101DA000761B002EE2D03546102E28BF10250023CA
:101DB000E8E70E46F5E708B5FFF7CCFF08BD0000E1
:101DC00008B500F003F9024A024B9A6008BD00BF53
:101DD0000000000800ED00E0F8B504460D46174687
:101DE0001E462748FFF78CFF21682648FFF788FF2B
:101DF00061682548FFF784FFA1682448FFF780FF4A
:101E0000E1682348FFF77CFF21692248FFF778FF4C
:101E100061692148FFF774FFA1692048FFF770FF4F
:101E2000E1691F48FFF76CFF1E48FFF769FF29466D
:101E30001D48FFF765FF1D4CE16A1D48FFF760FF75
:101E4000216B1C48FFF75CFFE16B1B48FFF758FF55
:101E500015F0800F0AD115F4004F0CD11748FFF789
:101E60004FFF06991648FFF74BFFF8BD3946154856
:101E7000FFF746FFEFE731461348FFF741FFEDE775
:101E8000383900084839000858390008683900080E
:101E9000783900088839000898390008A8390008FE
:101EA000B8390008C8390008D439000800ED00E04E
:101EB000E4390008F4390008043A0008343A00080C
:101EC0003C3A0008143A0008243A000838B58369FF
:101ED0001B888B4201D0002038BD0446036845684A
:101EE000013B302B69D8DFE803F046211C1C5E3033
:101EF000332D191968191919191936192468192750
:101F00006839686868686868686868686868686880
:101F10006868686868686868681919004FF0FF3376
:101F20000360A3690233A3610120D5E700230360A6
:101F3000F7E700230360F4E700232B606B60AB60DE
:101F4000EB60EEE700230360EBE7AB680360E8E7D4
:101F500000230360E5E700230360E2E7BFF34F8F50
:101F60001749CA6802F4E062164B1343CB60BFF313
:101F70004F8F00BFFDE71449286800F0E1FB40B92E
:101F80006B6813B901232360CBE7042B05D0082B22
:101F900006D04FF0FF332360C3E702232360C0E77E
:101FA00003232360BDE72B68023B012B02D9AB68FA
:101FB0000360B6E700230360B3E700208CE700BFAF
:101FC00000ED00E00400FA05083900080C4B1A681F
:101FD00042F001021A60002199601A6822F08472AE
:101FE00022F480321A60074A5A601A6822F480226A
:101FF0001A60D960044B4FF000629A60704700BFCE
:10200000003802401030002400ED00E0224B9B68B5
:1020100003F00C03042B14D0082B16D01BB11F4B5C
:102020001F4A1A6002E01D4B1D4A1A601A4B9B683A
:10203000C3F303131B4AD15C184A1368CB401360E7
:102040007047164B184A1A60F0E7134B59685A68E4
:1020500002F03F0211F4800F13D0134BB3FBF2F3E5
:102060000D4A5268C2F3881202FB03F30A4A52680F
:10207000C2F3014201325200B3FBF2F3074A13608C
:10208000D4E7074BB3FBF2F3034A5268C2F388125A
:1020900002FB03F3EAE700BF00380240040000201F
:1020A0000024F400803A000800127A000A4B1B68F2
:1020B0000A4AA2FB03239B09013BB3F1807F0AD2AA
:1020C0004FF0E0225361064BF02183F823100023E8
:1020D000936107231361704704000020D34D621001
:1020E00000ED00E0034B1860024B1B68002BFBD196
:1020F000704700BF1C020020034B1B681BB1024A43
:102100001368013B136070471C02002008B5FEF7FE
:10211000C7F9FFF7F1FF08BD30B595B00024019471
:10212000214B1A6C42F080521A641B6C03F08053EE
:102130000193019B02941D4B1A6842F440421A60BD
:102140001B6803F440430293029B01230893099305
:102150004FF480030F93082310934FF4A873119347
:1021600002251295072313930E9508A8FEF7CEFBC0
:102170000F230393049505944FF4A05306934FF453
:1021800080530793052103A8FEF78AFEFEF7B8FFE8
:10219000074BA3FB00308009FEF7F4F90420FEF79B
:1021A00005FA15B030BD00BF003802400070004095
:1021B000D34D621008B5FEF759F9FFF7ADFFFFF7F1
:1021C00025FF08BDF0B58DB000240794089409944C
:1021D0000A940B940094344B1A6B42F020021A6359
:1021E0001A6B02F020020092009A01941A6B42F0DE
:1021F00080021A631A6B02F080020192019A029423
:102200001A6B42F004021A631A6B02F00402029283
:10221000029A03941A6B42F001021A631A6B02F0DD
:1022200001020392039A04941A6B42F002021A63A9
:102230001A6B02F002020492049A05941A6B42F09F
:1022400008021A631A6B02F008020592059A0694B6
:102250001A6B42F040021A631B6B03F040030693B3
:10226000069B124F224604213846FEF733FB104DE1
:1022700022464FF440512846FEF72CFB04230793D7
:102280000126089609940A9407A93846FEF7ACF986
:102290004FF440530793089609940A9407A92846D7
:1022A000FEF7A2F90DB0F0BD003802400008024070
:1022B000000C024072B6FEE710B586B00024009410
:1022C000164B5A6C42F010025A645B6C03F0100318
:1022D0000093009B4FF4C0630193022302930123F8
:1022E0000393032304930723059301A90C48FEF7E6
:1022F0007BF90C480C4B03604FF4E133436084607E
:10230000C46004610C2343618461C461FFF72AF94E
:1023100008B906B010BDFFF7CDFF00BF003802407E
:1023200000000240200200200010014000B583B0F0
:10233000ADF806004FF4805301220DF10601074865
:10234000FFF7AAF910B903B05DF804FB0246BDF827
:1023500006300349034800F00FF9F4E7200200209B
:10236000EC3A0008903A000830B585B02248FFF7F3
:10237000E1FCFEF77BF8FFF799FEFFF723FFFFF77D
:102380009BFF002301930293CDF80B3013E004F17F
:1023900010030DEB030515F90C1C1848FFF7B0FCF2
:1023A00015F90C0C80B2FFF7C1FF01340A2CEED9ED
:1023B0001348FFF7A5FC0120FFF794FE64230B22CE
:1023C00001A91048FFF7D2F90028F4D19DF9063091
:1023D000232BF0D19DF904309DF9051043EA01212A
:1023E0000948FFF78DFC0948FFF78AFC0848FFF70A
:1023F00087FC0324DAE700BFBC3A0008E83A00088B
:10240000D039000820020020D03A0008DC3A000849
:10241000E03A000870470000002310B50446C0E908
:102420000033C0E90433836081814366C2818361E4
:10243000194608225C3000F02DF9054B6362054B0C
:10244000A362054BE362054B2462236310BD00BF0A
:102450009D250008BF250008F72500081B26000859
:10246000024A0349034800F069B800BF0800002091
:10247000013200081400002041680C4B994210B54D
:10248000044601D000F0BCFEA168094B994202D07D
:10249000204600F0B5FEE168064B994204D0204684
:1024A000BDE8104000F0ACBE10BD00BF60020020CF
:1024B000C80200203003002010B50B4B0B4C0C4A17
:1024C0001A60204600220421FFF7A6FF04F16800ED
:1024D00001220921FFF7A0FF04F1D0000222BDE88C
:1024E00010401221FFF798BF9803002060020020DF
:1024F00061240008014800F021B900BF9D030020BD
:10250000014800F01CB900BF9D03002010B504462F
:10251000FFF7F0FF236A1BB1BDE81040FFF7F0BFE3
:10252000044B2362044B1B68002BF5D1FFF7C4FF5B
:10253000F2E700BF79240008980300202DE9F84352
:102540000746884614460026D4E90195B9F10109E9
:1025500005D52468002CF7D13046BDE8F883AB8957
:10256000012B07D9B5F90E30013303D0294638467F
:10257000C04706436835E9E70FB407B5064904AB21
:10258000086853F8042B8168019300F00DFB03B039
:102590005DF804EB04B070476000002010B50C46F5
:1025A000B1F90E1000F0A0F80028ABBF636DA3894D
:1025B0001B1823F48053ACBF6365A38110BD2DE9C4
:1025C000F0411F468B89DB0505460C46164605D5AE
:1025D000B1F90E100223002200F074F8A389B4F9B7
:1025E0000E1023F48053A38132463B462846BDE8B3
:1025F000F04100F08BB810B50C46B1F90E1000F0A8
:1026000061F8431CA38915BF606523F4805343F42C
:102610008053A38118BFA38110BDB1F90E1000F043
:1026200041B830B51446002C9BB005461A4605DA71
:102630008B2303604FF0FF301BB030BD4FF40273AB
:10264000ADF80C3014BF04F1FF3323460293059319
:102650004FF6FF7300910491ADF80E3069461E9B52
:1026600000F07CF9431CBCBF8B232B60002CE3D013
:10267000009B00221A70DFE707B5009313460A4655
:10268000014603480068FFF7CCFF03B05DF804FB88
:102690006000002002440346934200D1704703F8D3
:1026A000011BF9E738B5064D0023044608462B60A8
:1026B000FFF7AEFA431C02D12B6803B1236038BD8B
:1026C000EC00002038B5074D0446084611460022AC
:1026D0002A601A46FFF756FA431C02D12B6803B151
:1026E000236038BDEC00002038B5074D044608468D
:1026F000114600222A601A46FFF7DEF9431C02D178
:102700002B6803B1236038BDEC00002038B5074DBD
:1027100004460846114600222A601A46FFF746FA88
:10272000431C02D12B6803B1236038BDEC000020AC
:10273000014B1868704700BF600000207047704769
:1027400010F8012B11F8013B012A28BF9A42F7D05B
:10275000D01A7047034613F8012B002AFBD1181A30
:102760000138704770B50E4E0C463168054611B9F8
:1027700000F01EFE30602146284600F019FE431C82
:102780000AD0C41C24F00304A04207D0211A284612
:1027900000F00EFE013001D14FF0FF34204670BD35
:1027A000A40300202DE9F041CD1C25F003050835D8
:1027B0000C2D38BF0C25002D074601DBA94205D999
:1027C0000C233B6000263046BDE8F0812F4E00F020
:1027D0005FF833681C4644BB29463846FFF7C2FF02
:1027E000431C04464FD134682646002E42D1002CAB
:1027F00043D023683146384604EB030800F0D8FD87
:1028000080453AD123680335ED1A25F003050835D4
:102810000C2D38BF0C2529463846FFF7A3FF0130A1
:102820002BD023682B4423600EE02268521B1ED459
:102830000B2A16D96119A342256018BF5960636835
:1028400008BF316062514B60384604F10B0600F05E
:1028500025F826F00706231DF21AB4D09B1BA350BF
:10286000B1E76268A3420CBF32605A60ECE72346CE
:102870006468B0E734467668B7E70C233B603846B7
:1028800000F00CF89FE72560DEE700BFA003002002
:102890000148FFF753BF00BF9C0300200148FFF72A
:1028A0004EBF00BF9C0300202DE9F0478E681F46F5
:1028B000BE420B6882460C4690462CD88A8912F498
:1028C000906F26D06569096905EB4505A3EB010901
:1028D00005EBD5757B1C4B446D109D4238BF1D46E2
:1028E000530527D52946FFF75DFF064660B32169EA
:1028F0004A4600F0BDFDA38923F4906343F08003B2
:10290000A381266165614E44A5EB09052660A5609B
:102910003E46BE4200D93E4620683246414600F05F
:102920002DFDA3689B1BA360236833442360002014
:10293000BDE8F0872A4600F0F3FD06460028E0D106
:102940002169504600F0A2FD0C23CAF80030A3898B
:1029500043F04003A3814FF0FF30E9E72DE9F04F4A
:1029600098468B891B069DB007460D4614460ED52A
:102970000B6963B94021FFF715FF2860286120B972
:102980000C233B604FF0FF30D0E040236B6100230D
:10299000099320238DF82930CDF80C803023DFF8FF
:1029A000A4818DF82A304FF0010923469A4613F886
:1029B000012B0AB1252AF9D1BAEB040B0BD05B46E7
:1029C000224629463846FFF76FFF013000F0A98004
:1029D000099A5A4409929AF80030002B00F0A1801D
:1029E00000234FF0FF32CDE905230AF1010A0493D9
:1029F00007938DF853301A935446052214F8011B9F
:102A0000504800F0E5FC049AD8B9D00644BF202312
:102A10008DF85330110744BF2B238DF853309AF8AB
:102A200000302A2B15D0079A544600204FF00A0C8C
:102A3000214611F8013B303B092B4DD9B0B107922B
:102A400014E0A0EB080309FA03F313430493A2462E
:102A5000D2E7039B191D1B680391002BBBBF5B4290
:102A600042F0020207930793B8BF049223782E2BFB
:102A70000CD163782A2B34D1039B1A1D1B68039257
:102A8000002BB8BF4FF0FF3302340593DFF8B8A036
:102A900021780322504600F09BFC38B1049BA0EB48
:102AA0000A004022824013430134049314F8011BAE
:102AB00026488DF82810062200F08AFC002838D01D
:102AC000234B1BBB039B073323F0070308330393FC
:102AD000099B3344099368E70CFB02320C46012042
:102AE000A6E700230134059319464FF00A0C20464F
:102AF00010F8012B303A092A03D9002BC6D00591D2
:102B0000C4E70CFB012104460123F0E703AB00936B
:102B10002A46104B04A93846AFF30080421C0646F3
:102B2000D6D1AB895B063FF52DAF09981DB0BDE846
:102B3000F08F03AB00932A46064B04A9384600F0F9
:102B4000BBF9EBE7F83B0008FE3B0008023C00083D
:102B500000000000A92800089368013B002B10B476
:102B6000936007DA9469A34201DB0A2902D110BC01
:102B700000F06EBB1368581C10601970084610BC3A
:102B80007047F8B506460F461446D518AC4201D139
:102B9000002007E014F8011B3A463046FFF7DCFF3F
:102BA000431CF3D1F8BD00002DE9F04F0D469DB058
:102BB00014469846064618B1036A0BB9FFF7A6FCFF
:102BC0006B6ED90705D4AB899A0502D4A86DFFF7BF
:102BD000B5FDAB891B0701D52B699BB9294630464A
:102BE00000F074FB70B16B6EDC0704D54FF0FF3062
:102BF0001DB0BDE8F08FAB899805F7D4A86DFFF73D
:102C00009EFDF3E70023099320238DF82930CDF8AA
:102C10000C803023DFF8B0818DF82A304FF00109A5
:102C200023469A4613F8012B0AB1252AF9D1BAEBAB
:102C3000040B0BD05B46224629463046FFF7A1FF26
:102C4000013000F0A980099A5A4409929AF800309C
:102C5000002B00F0A18000234FF0FF32CDE90523C7
:102C60000AF1010A049307938DF853301A935446DE
:102C7000052214F8011B544800F0AAFB049AD8B9A5
:102C8000D10644BF20238DF85330130744BF2B23B4
:102C90008DF853309AF800302A2B15D0079A5446F5
:102CA00000204FF00A0C214611F8013B303B092B64
:102CB0004DD9B0B1079214E0A0EB080309FA03F371
:102CC00013430493A246D2E7039B191D1B6803918B
:102CD000002BBBBF5B4242F0020207930793B8BFD1
:102CE000049223782E2B0CD163782A2B34D1039BAA
:102CF0001A1D1B680392002BB8BF4FF0FF3302343C
:102D00000593DFF8C8A021780322504600F060FB4D
:102D100038B1049BA0EB0A004022824013430134E7
:102D2000049314F8011B2A488DF82810062200F09D
:102D30004FFB00283FD0274B1BBB039B073323F0DF
:102D4000070308330393099B3B44099368E70CFB93
:102D500002320C460120A6E70023013405931946F0
:102D60004FF00A0C204610F8012B303A092A03D9FB
:102D7000002BC6D00591C4E70CFB012104460123BA
:102D8000F0E703AB00932A46134B04A93046AFF398
:102D900000800746781CD6D16B6ED90705D4AB8965
:102DA0009A0502D4A86DFFF7CAFCAB895B063FF514
:102DB0001DAF09981CE703AB00932A46064B04A9F4
:102DC000304600F079F8E4E7F83B0008FE3B0008E5
:102DD000023C000800000000832B00082DE9F047AA
:102DE000164699468A680B69DDF820809342B8BF81
:102DF0001346336091F8432007460C460AB101336D
:102E000033602368990642BF336802333360256814
:102E100015F0060506D104F1190AE36832689B1A19
:102E2000AB4226DC94F84320131E226818BF01230E
:102E300092062BD404F1430249463846C04701307C
:102E40001ED02368226903F00603042B02BFE56845
:102E50003368ED1AA3680CBF25EAE5750025934297
:102E6000C4BF9B1AED1800261A34B5421AD10020AF
:102E700008E00123524649463846C047013003D195
:102E80004FF0FF30BDE8F0870135C6E7E1185A1C66
:102E9000302081F84300224494F8451082F8431012
:102EA0000233C7E70123224649463846C04701306E
:102EB000E6D00136D9E700002DE9FF470F7E0C9DD3
:102EC000782F914680460C469A4601F1430207D876
:102ED000622F0AD8002F00F0D480582F00F0C08055
:102EE00004F1420584F842703AE0A7F16303152B20
:102EF000F6D801A151F823F0512F0008652F0008E2
:102F0000E12E0008E12E0008E12E0008E12E000865
:102F1000652F0008E12E0008E12E0008E12E0008D0
:102F2000E12E000869300008912F000823300008C6
:102F3000E12E0008E12E00088B300008E12E000889
:102F4000912F0008E12E0008E12E00082B30000828
:102F50002B681A1D1B682A6004F1420584F8423070
:102F600001239FE020682B68070603F10401296014
:102F700001D51E6803E04606FBD5B3F90060002EBC
:102F800003DA2D23764284F843305A480A2312E0AC
:102F90002B682068191D2960050601D51E6802E00E
:102FA0004106FBD51E8853486F2F0CBF08230A2308
:102FB000002184F843106568A560002DA2BF216838
:102FC00021F0040121600EB9002D4BD01546B6FB4F
:102FD000F3F103FB1167C75D05F8017D3746BB427E
:102FE0000E46F4D9082B0BD12368DE0708D52369D8
:102FF00061689942DEBF302305F8013C05F1FF35D9
:10300000521B2261CDF800A04B4603AA2146404640
:10301000FFF7E4FE01304AD14FF0FF3004B0BDE8C5
:10302000F087236843F0200323603348782784F82F
:103030004570236829681F0651F8046B02D45F06A7
:1030400048BFB6B2DF0748BF43F02003296048BF3E
:1030500023601EB9236823F0200323601023A7E711
:103060002448E4E71546BDE72B6826686169181D0A
:10307000286035061B6801D5196002E07006FBD593
:103080001980002323611546BCE72B681A1D2A60AE
:103090001D6862680021284600F09AF908B1401BBB
:1030A000606063682361002384F84330AAE72369E2
:1030B0002A4649464046D0470130ADD023689B0799
:1030C00013D4E068039B9842B8BF1846A6E70123D3
:1030D000324649464046D04701309DD00135E3682D
:1030E00003995B1AAB42F2DCEBE7002504F1190609
:1030F000F5E700BF093C00081A3C00088A89F8B5CA
:10310000054610070C4657D44B68002B04DC0B6CAB
:10311000002B01DC0020F8BDE66A002EFAD0002367
:1031200012F480522F68216A2B6032D0606DA3891F
:103130005A0705D56368C01A636B0BB1236CC01ABC
:1031400000230246E66A216A2846B047431CA38949
:1031500006D129681D292BD8284A0A41D60727D429
:1031600000226260D9042269226004D5421C01D188
:103170002B6803B96065616B2F600029CAD004F128
:103180004403994202D0284600F080F90020606391
:10319000C1E701232846B047411CC8D12B68002B4A
:1031A000C5D01D2B01D0162B01D12F60B2E7A3890A
:1031B00043F04003A381AEE70F69002FAAD0930725
:1031C0000E6808BF4B690F6018BF0023F61B8B60A9
:1031D000002E9FDD216AD4F828C033463A4628469F
:1031E000E047002806DCA38943F04003A3814FF0A9
:1031F000FF3090E70744361AEAE700BFFEFFBFDF63
:1032000038B50B6905460C4613B90025284638BD6C
:1032100018B1036A0BB9FFF779F9B4F90C30002B38
:10322000F3D0626ED00704D4990502D4A06DFFF7E5
:1032300085FA28462146FFF761FF636EDA070546E7
:10324000E4D4A3899B05E1D4A06DFFF778FADDE70C
:10325000F8B50E461446054618B1036A0BB9FFF7D8
:1032600055F9A369A360A3891A0725D523691BB360
:1032700023682269981A6369F6B28342374604DCF0
:1032800021462846FFF7BCFFE0B9A368013BA360D5
:1032900023685A1C22601E706269431C9A4204D043
:1032A000A389DB0706D50A2E04D121462846FFF75D
:1032B000A7FF38B93846F8BD2146284600F006F881
:1032C0000028D5D04FF0FF37F4E7000038B52A4B7F
:1032D000054618680C4618B1036A0BB9FFF716F9D2
:1032E000A389B4F90C20180722D4D90607D40923DE
:1032F0002B6042F04003A3814FF0FF3034E05807C9
:1033000012D5616B41B104F14403994202D02846C1
:1033100000F0BCF800236363A38923F02403A38196
:103320000023636023692360A38943F00803A3811A
:1033300023694BB9A38903F42073B3F5007F03D04D
:103340002146284600F041F9A089B4F90C2010F07C
:1033500001030AD00023A36063695B42A361236970
:1033600043B910F08000C4D138BD810758BF6369EC
:10337000A360F4E70020F7E760000020884210B562
:1033800001EB020402D98442234607D8431EA1421E
:1033900008D011F8012B03F8012FF8E70244014689
:1033A0008A4200D110BD13F8014D02F8014DF7E734
:1033B00038B5064D0023044608462B60FEF750FA48
:1033C000431C02D12B6803B1236038BDEC00002000
:1033D00001F0FF01102A2BDB10F0070F08D010F8C6
:1033E000013B013A8B422DD010F0070F42B3F6D1CA
:1033F000F0B441EA012141EA014122F007047FF0E3
:1034000000070023F0E80256083C85EA010586EA39
:10341000010685FA47F5A3FA87F586FA47F6A5FA75
:1034200087F68EB9EED1F0BC01F0FF0102F0070281
:1034300032B110F8013B013A83EA010313B1F8D12C
:103440000020704701387047002D06BF354603380D
:10345000073815F0010F07D1013015F4807F02BF46
:10346000013015F4C03F0130F0BC0138704700BF97
:103470000A44914200F1FF3300D1704710B511F8B2
:10348000014B03F8014F9142F9D110BD38B5054603
:10349000002941D051F8043C0C1F002BB8BFE418A0
:1034A000FFF7F6F91D4A136833B9636014602846C4
:1034B000BDE83840FFF7F2B9A34208D920682118C7
:1034C0008B4201BF19685B6809182160EDE71A4655
:1034D0005B680BB1A342FAD911685018A0420BD116
:1034E00020680144501883421160E0D118685B687D
:1034F000536008441060DAE702D90C232B60D6E74A
:10350000206821188B4204BF19685B68636004BFA0
:10351000091821605460CAE738BD00BFA00300202D
:103520002DE9F041804614460E4621B9BDE8F04130
:103530001146FFF737B92AB9FFF7A8FF25462846F5
:10354000BDE8F08100F0A0F88442074602D8B4EB51
:10355000500F12D821464046FFF724F905460028AF
:10356000EDD0BC422246314628BF3A46FFF780FFE5
:1035700031464046FFF78AFFE1E73546DFE770B5A1
:103580000C46B1F90E10002996B015461E460DDA0C
:10359000A38913F0800F4FF000010CBF4FF480633C
:1035A0004023002031602B6016B070BD6A4600F0E9
:1035B00049F80028ECDB019901F47041A1F50053B2
:1035C000594259414FF48063EBE78B8973B59D07EE
:1035D00006460C4607D504F1470323602361012307
:1035E000636102B070BD01AB6A46FFF7C8FF009986
:1035F00005463046FFF7D6F848B9B4F90C309A05BD
:10360000EFD423F0030343F00203A381E3E7A3898C
:10361000206043F08003A381009B6361019B2061D4
:103620005BB1B4F90E10304600F01EF828B1A38942
:1036300023F0030343F00103A381A3891D43A58164
:10364000CFE7000038B5074D002304460846114671
:103650002B60FEF723FB431C02D12B6803B12360D0
:1036600038BD00BFEC00002038B5064D00230446ED
:1036700008462B60FEF71FFB431C02D12B6803B1E9
:10368000236038BDEC00002051F8043C181F002BCB
:10369000BCBF0B58C01870472E2E2F7379737465FA
:1036A0006D2F7372632F73746D333266342D6861BE
:1036B0006C2F73746D3332663478785F68616C5F39
:1036C000636F727465782E63000000002E2E2F73D6
:1036D000797374656D2F7372632F73746D333266F3
:1036E000342D68616C2F73746D3332663478785F73
:1036F00068616C5F6770696F2E63000048656C6C71
:103700006F2041524D20576F726C6421313100009F
:103710002E2E2F73797374656D2F7372632F7374EC
:103720006D333266342D68616C2F73746D3332667D
:103730003478785F68616C5F7263632E63000000A9
:10374000737348656C6C6F2041524D20576F726CDB
:103750006421313100000000737348656C6C6F2088
:1037600041524D20576F726C6421333300000000CA
:10377000737348656C6C6F2041524D20576F726CAB
:103780006421343420256400737348656C6C6F20A9
:1037900041524D20576F726C642136363636000028
:1037A000737348656C6C6F2041524D20576F726C7B
:1037B0006421353500000000737348656C6C6F2020
:1037C00041524D20576F726C6421343434343400CC
:1037D000737348656C6C6F2041524D20576F726C4B
:1037E000642136360000000048656C6C6F20415241
:1037F0004D20576F726C64213838000048656C6C3E
:103800006F2041524D20576F726C6421393900008E
:1038100048656C6C6F2041524D20576F726C64216B
:103820003232000048656C6C6F2041524D20576F5A
:10383000726C64213333000048656C6C6F20415218
:103840004D20576F726C64213535000048656C6CF3
:103850006F2041524D20576F726C64213636000044
:1038600048656C6C6F2041524D20576F726C64211B
:103870003737370048656C6C6F2041524D20576FC9
:10388000726C64213838380048656C6C6F20415286
:103890004D20576F726C64213939393900000000AE
:1038A00048656C6C6F2041524D20576F726C6421DB
:1038B000313233000000000001020304010203045E
:1038C000060708092E2E2F73797374656D2F737296
:1038D000632F73746D333266342D68616C2F73748B
:1038E0006D3332663478785F68616C5F75617274CD
:1038F0002E63000061626F727428292C206578693C
:1039000074696E672E2E2E003A74740061737365AD
:1039100072745F706172616D2829206661696C65DF
:10392000643A2066696C6520222573222C206C691C
:103930006E652025640A0000537461636B20667213
:10394000616D653A0A000000205230203D2020259C
:103950003038580A00000000205231203D20202538
:103960003038580A00000000205232203D20202527
:103970003038580A00000000205233203D20202516
:103980003038580A0000000020523132203D2025F6
:103990003038580A00000000204C52203D202025DD
:1039A0003038580A00000000205043203D202025D8
:1039B0003038580A0000000020505352203D202586
:1039C0003038580A000000004653522F4641523A00
:1039D0000A0000002043465352203D202025303865
:1039E000580A00002048465352203D2020253038F8
:1039F000580A00002044465352203D2020253038EC
:103A0000580A00002041465352203D2020253038DE
:103A1000580A0000204D4D464152203D20253038A7
:103A2000580A00002042464152203D2020253038CF
:103A3000580A00004D6973630A000000204C522FA1
:103A40004558435F52455455524E3D202530385815
:103A50000A0000005B486172644661756C745D0A1F
:103A6000000000005B4275734661756C745D0A006E
:103A70005B55736167654661756C745D0A00000093
:103A8000000000000000000001020304060708090E
:103A90004552524F52203A3A2025732829203A2085
:103AA000737461747573203D2025642C2076616CDD
:103AB0007565203D20307825780D0A0048656C6CCE
:103AC0006F2041524D20576F726C6421000000003E
:103AD00063616E69643A20256400000023230000BE
:103AE000646174613A20000025642000756172747D
:103AF0005F7772697465000020202020202020203C
:103B0000202828282828202020202020202020208D
:103B100020202020202020208810101010101010AD
:103B200010101010101010100404040404040404F5
:103B30000404101010101010104141414141410186
:103B40000101010101010101010101010101010165
:103B50000101011010101010104242424242420274
:103B60000202020202020202020202020202020235
:103B700002020210101010200000000000000000DF
:103B80000000000000000000000000000000000035
:103B90000000000000000000000000000000000025
:103BA0000000000000000000000000000000000015
:103BB0000000000000000000000000000000000005
:103BC00000000000000000000000000000000000F5
:103BD00000000000000000000000000000000000E5
:103BE00000000000000000000000000000000000D5
:103BF0000000000000000000232D302B2000686C26
:103C00004C006566674546470030313233343536FF
:103C10003738394142434445460030313233343538
:0B3C2000363738396162636465660066
:103C2C00785634120024F400000000000300000059
:103C3C00600200200000000060020020C80200208A
:103C4C003003002000000000000000000000000015
:103C5C000000000000000000000000000000000058
:103C6C000000000000000000000000000000000048
:103C7C000000000000000000000000000000000038
:083C8C00140000203254769868
:04000005080001AD41
:00000001FF
